{"abi":[{"type":"constructor","inputs":[],"stateMutability":"nonpayable"},{"type":"function","name":"INITIAL_SUPPLY","inputs":[],"outputs":[{"name":"","type":"uint256","internalType":"uint256"}],"stateMutability":"view"},{"type":"function","name":"TOKENS_PER_ETH","inputs":[],"outputs":[{"name":"","type":"uint256","internalType":"uint256"}],"stateMutability":"view"},{"type":"function","name":"addTokensToSale","inputs":[{"name":"amount","type":"uint256","internalType":"uint256"}],"outputs":[],"stateMutability":"nonpayable"},{"type":"function","name":"allowance","inputs":[{"name":"owner","type":"address","internalType":"address"},{"name":"spender","type":"address","internalType":"address"}],"outputs":[{"name":"","type":"uint256","internalType":"uint256"}],"stateMutability":"view"},{"type":"function","name":"approve","inputs":[{"name":"spender","type":"address","internalType":"address"},{"name":"value","type":"uint256","internalType":"uint256"}],"outputs":[{"name":"","type":"bool","internalType":"bool"}],"stateMutability":"nonpayable"},{"type":"function","name":"balanceOf","inputs":[{"name":"account","type":"address","internalType":"address"}],"outputs":[{"name":"","type":"uint256","internalType":"uint256"}],"stateMutability":"view"},{"type":"function","name":"buyTokens","inputs":[],"outputs":[],"stateMutability":"payable"},{"type":"function","name":"decimals","inputs":[],"outputs":[{"name":"","type":"uint8","internalType":"uint8"}],"stateMutability":"view"},{"type":"function","name":"getETHPaymentForTokens","inputs":[{"name":"tokenAmount","type":"uint256","internalType":"uint256"}],"outputs":[{"name":"","type":"uint256","internalType":"uint256"}],"stateMutability":"pure"},{"type":"function","name":"getTokenPrice","inputs":[],"outputs":[{"name":"","type":"uint256","internalType":"uint256"}],"stateMutability":"view"},{"type":"function","name":"getTokensForETH","inputs":[{"name":"ethAmount","type":"uint256","internalType":"uint256"}],"outputs":[{"name":"","type":"uint256","internalType":"uint256"}],"stateMutability":"pure"},{"type":"function","name":"name","inputs":[],"outputs":[{"name":"","type":"string","internalType":"string"}],"stateMutability":"view"},{"type":"function","name":"owner","inputs":[],"outputs":[{"name":"","type":"address","internalType":"address"}],"stateMutability":"view"},{"type":"function","name":"renounceOwnership","inputs":[],"outputs":[],"stateMutability":"nonpayable"},{"type":"function","name":"saleActive","inputs":[],"outputs":[{"name":"","type":"bool","internalType":"bool"}],"stateMutability":"view"},{"type":"function","name":"salePrice","inputs":[],"outputs":[{"name":"","type":"uint256","internalType":"uint256"}],"stateMutability":"view"},{"type":"function","name":"setSalePrice","inputs":[{"name":"_newPrice","type":"uint256","internalType":"uint256"}],"outputs":[],"stateMutability":"nonpayable"},{"type":"function","name":"symbol","inputs":[],"outputs":[{"name":"","type":"string","internalType":"string"}],"stateMutability":"view"},{"type":"function","name":"toggleSale","inputs":[],"outputs":[],"stateMutability":"nonpayable"},{"type":"function","name":"totalSupply","inputs":[],"outputs":[{"name":"","type":"uint256","internalType":"uint256"}],"stateMutability":"view"},{"type":"function","name":"transfer","inputs":[{"name":"to","type":"address","internalType":"address"},{"name":"value","type":"uint256","internalType":"uint256"}],"outputs":[{"name":"","type":"bool","internalType":"bool"}],"stateMutability":"nonpayable"},{"type":"function","name":"transferFrom","inputs":[{"name":"from","type":"address","internalType":"address"},{"name":"to","type":"address","internalType":"address"},{"name":"value","type":"uint256","internalType":"uint256"}],"outputs":[{"name":"","type":"bool","internalType":"bool"}],"stateMutability":"nonpayable"},{"type":"function","name":"transferOwnership","inputs":[{"name":"newOwner","type":"address","internalType":"address"}],"outputs":[],"stateMutability":"nonpayable"},{"type":"function","name":"withdrawETH","inputs":[],"outputs":[],"stateMutability":"nonpayable"},{"type":"event","name":"Approval","inputs":[{"name":"owner","type":"address","indexed":true,"internalType":"address"},{"name":"spender","type":"address","indexed":true,"internalType":"address"},{"name":"value","type":"uint256","indexed":false,"internalType":"uint256"}],"anonymous":false},{"type":"event","name":"OwnershipTransferred","inputs":[{"name":"previousOwner","type":"address","indexed":true,"internalType":"address"},{"name":"newOwner","type":"address","indexed":true,"internalType":"address"}],"anonymous":false},{"type":"event","name":"SalePriceUpdated","inputs":[{"name":"newPrice","type":"uint256","indexed":false,"internalType":"uint256"}],"anonymous":false},{"type":"event","name":"SaleToggled","inputs":[{"name":"active","type":"bool","indexed":false,"internalType":"bool"}],"anonymous":false},{"type":"event","name":"TokensPurchased","inputs":[{"name":"buyer","type":"address","indexed":true,"internalType":"address"},{"name":"amount","type":"uint256","indexed":false,"internalType":"uint256"},{"name":"cost","type":"uint256","indexed":false,"internalType":"uint256"}],"anonymous":false},{"type":"event","name":"Transfer","inputs":[{"name":"from","type":"address","indexed":true,"internalType":"address"},{"name":"to","type":"address","indexed":true,"internalType":"address"},{"name":"value","type":"uint256","indexed":false,"internalType":"uint256"}],"anonymous":false},{"type":"error","name":"ERC20InsufficientAllowance","inputs":[{"name":"spender","type":"address","internalType":"address"},{"name":"allowance","type":"uint256","internalType":"uint256"},{"name":"needed","type":"uint256","internalType":"uint256"}]},{"type":"error","name":"ERC20InsufficientBalance","inputs":[{"name":"sender","type":"address","internalType":"address"},{"name":"balance","type":"uint256","internalType":"uint256"},{"name":"needed","type":"uint256","internalType":"uint256"}]},{"type":"error","name":"ERC20InvalidApprover","inputs":[{"name":"approver","type":"address","internalType":"address"}]},{"type":"error","name":"ERC20InvalidReceiver","inputs":[{"name":"receiver","type":"address","internalType":"address"}]},{"type":"error","name":"ERC20InvalidSender","inputs":[{"name":"sender","type":"address","internalType":"address"}]},{"type":"error","name":"ERC20InvalidSpender","inputs":[{"name":"spender","type":"address","internalType":"address"}]},{"type":"error","name":"OwnableInvalidOwner","inputs":[{"name":"owner","type":"address","internalType":"address"}]},{"type":"error","name":"OwnableUnauthorizedAccount","inputs":[{"name":"account","type":"address","internalType":"address"}]}],"bytecode":{"object":"0x60806040526005805460ff60a01b1916905566038d7ea4c68000600655348015610027575f5ffd5b50336040518060400160405280601081526020016f20a49021b7b73a32bc3a102a37b5b2b760811b81525060405180604001604052806004815260200163105250d560e21b815250816003908161007e9190610326565b50600461008b8282610326565b5050506001600160a01b0381166100bc57604051631e4fbdf760e01b81525f60048201526024015b60405180910390fd5b6100c5816100df565b506100da3369d3c21bcecceda1000000610130565b610405565b600580546001600160a01b038381166001600160a01b0319831681179093556040519116919082907f8be0079c531659141344cd1fd0a4f28419497f9722a3daafe3b4186f6b6457e0905f90a35050565b6001600160a01b0382166101595760405163ec442f0560e01b81525f60048201526024016100b3565b6101645f8383610168565b5050565b6001600160a01b038316610192578060025f82825461018791906103e0565b909155506102029050565b6001600160a01b0383165f90815260208190526040902054818110156101e45760405163391434e360e21b81526001600160a01b038516600482015260248101829052604481018390526064016100b3565b6001600160a01b0384165f9081526020819052604090209082900390555b6001600160a01b03821661021e5760028054829003905561023c565b6001600160a01b0382165f9081526020819052604090208054820190555b816001600160a01b0316836001600160a01b03167fddf252ad1be2c89b69c2b068fc378daa952ba7f163c4a11628f55a4df523b3ef8360405161028191815260200190565b60405180910390a3505050565b634e487b7160e01b5f52604160045260245ffd5b600181811c908216806102b657607f821691505b6020821081036102d457634e487b7160e01b5f52602260045260245ffd5b50919050565b601f82111561032157805f5260205f20601f840160051c810160208510156102ff5750805b601f840160051c820191505b8181101561031e575f815560010161030b565b50505b505050565b81516001600160401b0381111561033f5761033f61028e565b6103538161034d84546102a2565b846102da565b6020601f821160018114610385575f831561036e5750848201515b5f19600385901b1c1916600184901b17845561031e565b5f84815260208120601f198516915b828110156103b45787850151825560209485019460019092019101610394565b50848210156103d157868401515f19600387901b60f8161c191681555b50505050600190811b01905550565b808201808211156103ff57634e487b7160e01b5f52601160045260245ffd5b92915050565b610ed2806104125f395ff3fe608060405260043610610147575f3560e01c8063715018a6116100b3578063bc6e66041161006d578063bc6e660414610381578063d0febe4c14610396578063dd62ed3e1461039e578063e086e5ec146103e2578063f2fde38b146103f6578063f51f96dd14610415575f5ffd5b8063715018a6146102e05780637d8966e4146102f45780638da5cb5b1461030857806395d89b411461032f578063a9059cbb14610343578063b5e19d2314610362575f5ffd5b806323b872dd1161010457806323b872dd146102215780632ff2e9dc14610240578063313ce5671461025d5780634b94f50e1461027857806368428a1b1461028c57806370a08231146102ac575f5ffd5b806306fdde031461014b578063095ea7b31461017557806313bc9073146101a457806318160ddd146101c55780631919fed7146101e35780632347e78814610202575b5f5ffd5b348015610156575f5ffd5b5061015f61042a565b60405161016c9190610ced565b60405180910390f35b348015610180575f5ffd5b5061019461018f366004610d3d565b6104ba565b604051901515815260200161016c565b3480156101af575f5ffd5b506101c36101be366004610d65565b6104d3565b005b3480156101d0575f5ffd5b506002545b60405190815260200161016c565b3480156101ee575f5ffd5b506101c36101fd366004610d65565b61053d565b34801561020d575f5ffd5b506101d561021c366004610d65565b610580565b34801561022c575f5ffd5b5061019461023b366004610d7c565b6105b1565b34801561024b575f5ffd5b506101d569d3c21bcecceda100000081565b348015610268575f5ffd5b506040516012815260200161016c565b348015610283575f5ffd5b506006546101d5565b348015610297575f5ffd5b5060055461019490600160a01b900460ff1681565b3480156102b7575f5ffd5b506101d56102c6366004610db6565b6001600160a01b03165f9081526020819052604090205490565b3480156102eb575f5ffd5b506101c36105d4565b3480156102ff575f5ffd5b506101c36105e7565b348015610313575f5ffd5b506005546040516001600160a01b03909116815260200161016c565b34801561033a575f5ffd5b5061015f610655565b34801561034e575f5ffd5b5061019461035d366004610d3d565b610664565b34801561036d575f5ffd5b506101d561037c366004610d65565b610671565b34801561038c575f5ffd5b506101d56103e881565b6101c3610699565b3480156103a9575f5ffd5b506101d56103b8366004610dd6565b6001600160a01b039182165f90815260016020908152604080832093909416825291909152205490565b3480156103ed575f5ffd5b506101c361085b565b348015610401575f5ffd5b506101c3610410366004610db6565b610952565b348015610420575f5ffd5b506101d560065481565b60606003805461043990610e07565b80601f016020809104026020016040519081016040528092919081815260200182805461046590610e07565b80156104b05780601f10610487576101008083540402835291602001916104b0565b820191905f5260205f20905b81548152906001019060200180831161049357829003601f168201915b5050505050905090565b5f336104c781858561098c565b60019150505b92915050565b6104db61099e565b5f811161052f5760405162461bcd60e51b815260206004820152601d60248201527f416d6f756e74206d7573742062652067726561746572207468616e203000000060448201526064015b60405180910390fd5b61053a3330836109cb565b50565b61054561099e565b60068190556040518181527fcea63119cff1639d4025f83bcb53d0a83ec28083118640a8b15232903e8f3a849060200160405180910390a150565b5f6105956103e8670de0b6b3a7640000610e53565b6105a783670de0b6b3a7640000610e53565b6104cd9190610e6a565b5f336105be858285610a28565b6105c98585856109cb565b506001949350505050565b6105dc61099e565b6105e55f610aa4565b565b6105ef61099e565b6005805460ff600160a01b808304821615810260ff60a01b1990931692909217928390556040517f37ae8f893f8baa4aef207505c0e4d730119d73dc1363bbee6fda5f5d52c3cf179361064b9390049091161515815260200190565b60405180910390a1565b60606004805461043990610e07565b5f336104c78185856109cb565b5f670de0b6b3a76400006106876103e884610e53565b6105a790670de0b6b3a7640000610e53565b600554600160a01b900460ff166106f25760405162461bcd60e51b815260206004820152601860248201527f546f6b656e2073616c65206973206e6f742061637469766500000000000000006044820152606401610526565b5f34116107415760405162461bcd60e51b815260206004820152601b60248201527f4d7573742073656e642045544820746f2062757920746f6b656e7300000000006044820152606401610526565b5f670de0b6b3a76400006107576103e834610e53565b61076990670de0b6b3a7640000610e53565b6107739190610e6a565b90505f81116107b55760405162461bcd60e51b815260206004820152600e60248201526d125b9d985b1a5908185b5bdd5b9d60921b6044820152606401610526565b305f908152602081905260409020548111156108135760405162461bcd60e51b815260206004820152601f60248201527f496e73756666696369656e7420746f6b656e7320696e20636f6e7472616374006044820152606401610526565b61081e3033836109cb565b6040805182815234602082015233917f8fafebcaf9d154343dad25669bfa277f4fbacd7ac6b0c4fed522580e040a0f33910160405180910390a250565b61086361099e565b47806108a65760405162461bcd60e51b81526020600482015260126024820152714e6f2045544820746f20776974686472617760701b6044820152606401610526565b5f6108b96005546001600160a01b031690565b6001600160a01b0316826040515f6040518083038185875af1925050503d805f8114610900576040519150601f19603f3d011682016040523d82523d5f602084013e610905565b606091505b505090508061094e5760405162461bcd60e51b8152602060048201526015602482015274115512081dda5d1a191c985dd85b0819985a5b1959605a1b6044820152606401610526565b5050565b61095a61099e565b6001600160a01b03811661098357604051631e4fbdf760e01b81525f6004820152602401610526565b61053a81610aa4565b6109998383836001610af5565b505050565b6005546001600160a01b031633146105e55760405163118cdaa760e01b8152336004820152602401610526565b6001600160a01b0383166109f457604051634b637e8f60e11b81525f6004820152602401610526565b6001600160a01b038216610a1d5760405163ec442f0560e01b81525f6004820152602401610526565b610999838383610bc7565b6001600160a01b038381165f908152600160209081526040808320938616835292905220545f19811015610a9e5781811015610a9057604051637dc7a0d960e11b81526001600160a01b03841660048201526024810182905260448101839052606401610526565b610a9e84848484035f610af5565b50505050565b600580546001600160a01b038381166001600160a01b0319831681179093556040519116919082907f8be0079c531659141344cd1fd0a4f28419497f9722a3daafe3b4186f6b6457e0905f90a35050565b6001600160a01b038416610b1e5760405163e602df0560e01b81525f6004820152602401610526565b6001600160a01b038316610b4757604051634a1406b160e11b81525f6004820152602401610526565b6001600160a01b038085165f9081526001602090815260408083209387168352929052208290558015610a9e57826001600160a01b0316846001600160a01b03167f8c5be1e5ebec7d5bd14f71427d1e84f3dd0314c0f7b2291e5b200ac8c7c3b92584604051610bb991815260200190565b60405180910390a350505050565b6001600160a01b038316610bf1578060025f828254610be69190610e89565b90915550610c619050565b6001600160a01b0383165f9081526020819052604090205481811015610c435760405163391434e360e21b81526001600160a01b03851660048201526024810182905260448101839052606401610526565b6001600160a01b0384165f9081526020819052604090209082900390555b6001600160a01b038216610c7d57600280548290039055610c9b565b6001600160a01b0382165f9081526020819052604090208054820190555b816001600160a01b0316836001600160a01b03167fddf252ad1be2c89b69c2b068fc378daa952ba7f163c4a11628f55a4df523b3ef83604051610ce091815260200190565b60405180910390a3505050565b602081525f82518060208401528060208501604085015e5f604082850101526040601f19601f83011684010191505092915050565b80356001600160a01b0381168114610d38575f5ffd5b919050565b5f5f60408385031215610d4e575f5ffd5b610d5783610d22565b946020939093013593505050565b5f60208284031215610d75575f5ffd5b5035919050565b5f5f5f60608486031215610d8e575f5ffd5b610d9784610d22565b9250610da560208501610d22565b929592945050506040919091013590565b5f60208284031215610dc6575f5ffd5b610dcf82610d22565b9392505050565b5f5f60408385031215610de7575f5ffd5b610df083610d22565b9150610dfe60208401610d22565b90509250929050565b600181811c90821680610e1b57607f821691505b602082108103610e3957634e487b7160e01b5f52602260045260245ffd5b50919050565b634e487b7160e01b5f52601160045260245ffd5b80820281158282048414176104cd576104cd610e3f565b5f82610e8457634e487b7160e01b5f52601260045260245ffd5b500490565b808201808211156104cd576104cd610e3f56fea2646970667358221220a2212874b1679278aba50fe9b2fdc0ed7a9fc1fa5705884d5237e1172c38388a64736f6c634300081c0033","linkReferences":{}},"methodIdentifiers":{"INITIAL_SUPPLY()":"2ff2e9dc","TOKENS_PER_ETH()":"bc6e6604","addTokensToSale(uint256)":"13bc9073","allowance(address,address)":"dd62ed3e","approve(address,uint256)":"095ea7b3","balanceOf(address)":"70a08231","buyTokens()":"d0febe4c","decimals()":"313ce567","getETHPaymentForTokens(uint256)":"2347e788","getTokenPrice()":"4b94f50e","getTokensForETH(uint256)":"b5e19d23","name()":"06fdde03","owner()":"8da5cb5b","renounceOwnership()":"715018a6","saleActive()":"68428a1b","salePrice()":"f51f96dd","setSalePrice(uint256)":"1919fed7","symbol()":"95d89b41","toggleSale()":"7d8966e4","totalSupply()":"18160ddd","transfer(address,uint256)":"a9059cbb","transferFrom(address,address,uint256)":"23b872dd","transferOwnership(address)":"f2fde38b","withdrawETH()":"e086e5ec"},"id":47}